:100000000A128A11F72F00308A000408840A820736
:0C001000003400340234083405340A3493
:100D560083120313051C851CB22EF801F80A051C24
:100D6600080085180800F701F70A0800831603171C
:100D76008801890151308316031381002F308500C5
:100D8600F0308600B2308700831203138501860196
:100D96008701080083120313061ACD2E0A30F000CD
:100DA6007008F3007308031908000330F2008A3054
:100DB600F1005530F000F00BDE2EF10BDE2EF20BBB
:100DC600DE2EE52E10308312031385060130F30262
:100DD600D52E8312031307141A30F100F830F000F1
:100DE600F00BF32EF10BF32E000083120313071002
:100DF600FA018718082FFC2E1030F000F00B012F97
:100E060000000130F0007008FA07831203138718F8
:100E1600FF2E4C307A02031C0800FA0108000A1261
:100E26008A11B9260A128A11831203138517071726
:100E36000A128A11CD260A128A11FB017B08031DAC
:100E4600F32F0A128A11EC260A128A110A128A1143
:100E5600AB260A128A117A08031D482F0230840035
:100E66000A128A1103200A128A11831203138600BA
:100E76000230F6000430F500BA30F400F40B412FCE
:100E8600F50B412FF60B412F00007803031D7A2F37
:100E9600043084000A128A1103200A128A1183126E
:100EA600031386000630F6001330F500AD30F4006B
:100EB600F40B5B2FF50B5B2FF60B5B2F622F0330CA
:100EC60084000A128A1103200A128A11831203135C
:100ED60086000330F6008A30F5005530F400F40B36
:100EE600722FF50B722FF60B722F792FF8017703FD
:100EF600031DAC2F053084000A128A1103200A1242
:100F06008A118312031386000630F6001330F500AB
:100F1600AD30F400F40B8D2FF50B8D2FF60B8D2FC6
:100F2600942F023084000A128A1103200A128A11B1
:100F36008312031386000330F6008A30F50055301D
:100F4600F400F40BA42FF50BA42FF60BA42FAB2F54
:100F5600F7017A080319B52F4C307A020318B52F1A
:100F6600FB01FB0A0730F5007D30F400F40BB92FC6
:100F7600F50BB92F212F0A128A11EC260A128A11B3
:100F86000A128A11AB260A128A117A080319E22F6D
:100F96004C307A020318E22F053084000A128A11B7
:100FA60003200A128A118312031386008230F50089
:100FB600DD30F400F40BDD2FF50BDD2FE22F780387
:100FC6000319FB0177030319FB017A080319FB01D7
:100FD6000730F5007D30F400F40BEF2FF50BEF2F03
:100FE6007B03031D212FBE2FF701F801F901FA013A
:0A0FF600FB0183010A128A11122F79
:04400E00E4E0FFFFEC
:00000001FF
